:100000000C9462000C948A000C948A000C948A0070
:100010000C948A000C948A000C948A000C948A0038
:100020000C948A000C948A000C948A000C948A0028
:100030000C948A000C948A000C948A000C948A0018
:100040000C9445010C948A000C948A000C948A004C
:100050000C948A000C948A000C948A000C948A00F8
:100060000C948A000C948A000000000024002700F1
:100070002A0000000000250028002B0000000000DE
:1000800023002600290004040404040404040202DA
:100090000202020203030303030301020408102007
:1000A0004080010204081020010204081020000012
:1000B0000008000201000003040700000000000027
:1000C00000009D0211241FBECFEFD8E0DEBFCDBFE0
:1000D00011E0A0E0B1E0E8EAF5E002C005900D9281
:1000E000A230B107D9F721E0A2E0B1E001C01D9232
:1000F000A131B207E1F710E0C2E6D0E004C02197D9
:10010000FE010E94CC02C136D107C9F70E948F01BF
:100110000C94D2020C940000833081F028F48130DA
:1001200099F08230A9F008958730A9F08830C9F09D
:100130008430B1F4809180008F7D03C08091800075
:100140008F7780938000089584B58F7784BD08955C
:1001500084B58F7DFBCF8091B0008F778093B00006
:1001600008958091B0008F7DF9CFCF93DF93282F32
:1001700030E0F901E255FF4F8491F901E656FF4F57
:10018000D491F901EA57FF4FC491CC23A1F081111A
:100190000E948C00EC2FF0E0EE0FFF1FE458FF4FA1
:1001A000A591B491EC91ED2381E090E009F480E019
:1001B000DF91CF91089580E090E0FACF1F93CF9325
:1001C000DF93282F30E0F901E255FF4F8491F901C8
:1001D000E656FF4FD491F901EA57FF4FC491CC2363
:1001E000A9F0162F81110E948C00EC2FF0E0EE0F89
:1001F000FF1FEE58FF4FA591B4918FB7F894EC9183
:10020000111108C0D095DE23DC938FBFDF91CF9111
:100210001F910895DE2BF8CFCF93DF9390E0FC0180
:10022000E656FF4F24918A579F4FFC018491882303
:10023000D1F090E0880F991FFC01E859FF4FA5917C
:10024000B491FC01EE58FF4FC591D49161110EC0DD
:100250009FB7F8948C91E22FE0958E238C932881A0
:10026000E223E8839FBFDF91CF9108958FB7F89481
:10027000EC91E22BEC938FBFF6CF60E089E00E9417
:10028000DE0060E08AE00C94DE001F920F920FB651
:100290000F9211242F933F938F939F93AF93BF930C
:1002A00080910D0190910E01A0910F01B09110016C
:1002B00030910C0123E0230F2D3758F50196A11D35
:1002C000B11D20930C0180930D0190930E01A0931A
:1002D0000F01B09310018091080190910901A09144
:1002E0000A01B0910B010196A11DB11D8093080177
:1002F00090930901A0930A01B0930B01BF91AF91B4
:100300009F918F913F912F910F900FBE0F901F9053
:10031000189526E8230F0296A11DB11DD2CF78941F
:1003200084B5826084BD84B5816084BD85B58260FA
:1003300085BD85B5816085BD80916E0081608093AB
:100340006E00109281008091810082608093810014
:100350008091810081608093810080918000816024
:10036000809380008091B10084608093B10080917F
:10037000B00081608093B00080917A0084608093A7
:100380007A0080917A00826080937A0080917A006E
:10039000816080937A0080917A00806880937A00EF
:1003A0001092C10060E082E00E940C0160E083E0F6
:1003B0000E940C0160E084E00E940C0160E085E096
:1003C0000E940C0161E089E00E940C0161E08AE07A
:1003D0000E940C0166246A94712C90E0492E90E0F2
:1003E000592E88248394912C32E7332E4CE6242E08
:1003F0000FEF10E082E00E94B500EC0183E00E9464
:10040000B5007C0184E00E94B5006C0185E00E948B
:10041000B5005C018091060190910701019709F0F8
:100420007FC02091040130910501809102019091DB
:1004300003018217930744F1809100018237F1F4A0
:1004400061E089E00E94DE0060E08AE00E94DE0058
:10045000CD2BE9F0CD28F1F584E00E94B500892B81
:10046000D9F380910201909103010A968F3F910583
:1004700064F5909303018093020114C060E089E069
:100480000E94DE0061E0E1CF0E943D01E1CF82E009
:100490000E94B500892BD9F3109207011092060132
:1004A0000E943D0180910401909105010196B301E4
:1004B0000E94A40290930501809304014114510409
:1004C00009F498CF0E94000095CF10930301009388
:1004D0000201E8CFEF2899F483E00E94B500892B50
:1004E000D9F380910201909103010A971816190619
:1004F0000CF4BFCF1092030110920201D3CFAB28AE
:1005000089F685E00E94B500892BD9F3809100011E
:10051000823719F420920001C5CF30920001C2CF7A
:10052000CD2B09F0BFCF82E00E94B500892BD9F313
:100530009092070180920601B5CF8FE790E09093EB
:10054000030180930201089597FB072E16F400948F
:1005500007D077FD09D00E94B80207FC05D03EF411
:10056000909581959F4F0895709561957F4F08955F
:10057000AA1BBB1B51E107C0AA1FBB1FA617B707C9
:1005800010F0A61BB70B881F991F5A95A9F78095E5
:100590009095BC01CD010895EE0FFF1F0590F491D9
:0805A000E02D0994F894FFCF4F
:0205A8007200DF
:00000001FF
