:100000000C9462000C948A000C948A000C948A0070
:100010000C948A000C948A000C948A000C948A0038
:100020000C948A000C948A000C948A000C948A0028
:100030000C948A000C948A000C948A000C948A0018
:100040000C944D020C948A000C948A000C948A0043
:100050000C948A000C948A000C948A000C948A00F8
:100060000C948A000C948A000000000024002700F1
:100070002A0000000000250028002B0000000000DE
:1000800023002600290004040404040404040202DA
:100090000202020203030303030301020408102007
:1000A0004080010204081020010204081020000012
:1000B0000008000201000003040700000000000027
:1000C0000000E00311241FBECFEFD8E0DEBFCDBF9C
:1000D00011E0A0E0B1E0E4E1F9E002C005900D928A
:1000E000A230B107D9F721E0A2E0B1E001C01D9232
:1000F000A532B207E1F710E0C2E6D0E004C02197D4
:10010000FE010E944C04C136D107C9F70E94970234
:100110000C9488040C940000833081F028F4813022
:1001200099F08230A9F008958730A9F08830C9F09D
:100130008430B1F4809180008F7D03C08091800075
:100140008F7780938000089584B58F7784BD08955C
:1001500084B58F7DFBCF8091B0008F778093B00006
:1001600008958091B0008F7DF9CFCF93DF93282F32
:1001700030E0F901E255FF4F8491F901E656FF4F57
:10018000D491F901EA57FF4FC491CC23A1F081111A
:100190000E948C00EC2FF0E0EE0FFF1FE458FF4FA1
:1001A000A591B491EC91ED2381E090E009F480E019
:1001B000DF91CF91089580E090E0FACF1F93CF9325
:1001C000DF93282F30E0F901E255FF4F8491F901C8
:1001D000E656FF4FD491F901EA57FF4FC491CC2363
:1001E000A9F0162F81110E948C00EC2FF0E0EE0F89
:1001F000FF1FEE58FF4FA591B4918FB7F894EC9183
:10020000111108C0D095DE23DC938FBFDF91CF9111
:100210001F910895DE2BF8CFCF93DF93EC018091EF
:10022000130190911401029749F4C130D10509F4EA
:100230003BC06CF560E0209709F437C08091130152
:1002400090911401049749F4C130D10509F45CC0C0
:100250000CF037C0209709F442C0809113019091AF
:100260001401059709F0E5C0CA30D10508F0E1C0D6
:10027000FE01E35CFE4F0C944C049C01A801B90103
:10028000CF01EA01EC01F301FF0110021702C230B5
:10029000D105A9F060E0C330D10581F68091170146
:1002A0000E94DE0060E006C061E0809117010E94BC
:1002B000DE0061E0809119010E94DE00BFCF61E0A5
:1002C000EDCFC230D10539F1C330D10509F0C5CF2A
:1002D00061E0809117010E94DE0060E022C061E0D1
:1002E000809117010E94DE0060E0809119010E9458
:1002F000DE0061E080911B010E94DE0060E08091E1
:100300001D010E94DE00A9CF60E0809117010E94CC
:10031000DE0061E0EACF60E0809117010E94DE001C
:1003200061E0809119010E94DE0060E080911B0174
:100330000E94DE0061E0E3CF60E0809117010E943F
:10034000DE0061E0809119010E94DE0061E00BC0D7
:1003500060E0809117010E94DE0061E08091190148
:100360000E94DE0060E080911B010E94DE0060E0E0
:1003700010C060E0809117010E94DE0061E0809172
:1003800019010E94DE0060E080911B010E94DE00E6
:1003900061E080911D010E94DE0061E015C060E017
:1003A000809117010E94DE0061E0809119010E9496
:1003B000DE0060E080911B010E94DE0061E0809120
:1003C0001D010E94DE0060E080911F01DF91CF914E
:1003D0000C94DE0061E0E4CF61E0809117010E949F
:1003E000DE0060E0E2CF61E0809117010E94DE0054
:1003F00060E0809119010E94DE0061E0DBCF61E0E6
:10040000809117010E94DE0060E0809119010E9436
:10041000DE0061E080911B010E94DE0060E0CFCF32
:1004200061E0809117010E94DE0060E08BCF60E008
:10043000F8CFDF91CF910895CF93DF9390E0FC0147
:10044000E656FF4F24918A579F4FFC0184918823E1
:10045000D1F090E0880F991FFC01E859FF4FA5915A
:10046000B491FC01EE58FF4FC591D49161110EC0BB
:100470009FB7F8948C91E22FE0958E238C9328817E
:10048000E223E8839FBFDF91CF9108958FB7F8945F
:10049000EC91E22BEC938FBFF6CF1F920F920FB629
:1004A0000F9211242F933F938F939F93AF93BF93FA
:1004B0008091030190910401A0910501B091060182
:1004C0003091020123E0230F2D3758F50196A11D2D
:1004D000B11D209302018093030190930401A09326
:1004E0000501B09306018091070190910801A09148
:1004F0000901B0910A010196A11DB11D8093070168
:1005000090930801A0930901B0930A01BF91AF91A4
:100510009F918F913F912F910F900FBE0F901F9041
:10052000189526E8230F0296A11DB11DD2CF78940D
:1005300084B5826084BD84B5816084BD85B58260E8
:1005400085BD85B5816085BD80916E008160809399
:100550006E00109281008091810082608093810002
:100560008091810081608093810080918000816012
:10057000809380008091B10084608093B10080916D
:10058000B00081608093B00080917A008460809395
:100590007A0080917A00826080937A0080917A005C
:1005A000816080937A0080917A00806880937A00DD
:1005B0001092C1002091110130911201032E000C04
:1005C000440B550B60E077E883E993E00E942D042B
:1005D00020930D0130930E0140930F0150931001B1
:1005E00060E084E00E941C0260E083E00E941C0244
:1005F00060E085E00E941C0264E0862E912C0AE0F7
:1006000010E070E0672E70E0772EC1E0D0E0EE24BD
:10061000EA94FE2C83E00E94B5005C0184E00E9415
:10062000B5006C0185E00E94B500AB2821F4D093A1
:100630000101C0930001CD2809F09BC0F092010197
:10064000E0920001892B09F098C0109201011092EC
:1006500000018091000190910101009709F4A9C067
:100660006C0197FF04C0CC24DD24C81AD90A1816DF
:1006700019060CF085C0D0930C01C0930B01C11476
:10068000D10409F496C03FB7F89480910701909186
:100690000801A0910901B0910A0126B5A89B05C0E7
:1006A0002F3F19F00196A11DB11D3FBFBA2FA92FF1
:1006B000982F8827820F911DA11DB11D42E0880F40
:1006C000991FAA1FBB1F4A95D1F740912101509154
:1006D000220160912301709124011C012D01241A33
:1006E000350A460A570A40910D0150910E0160915A
:1006F0000F0170911001241635064606570608F4BE
:10070000BECF8093210190932201A0932301B09347
:100710002401809115019091160120910B013091D7
:100720000C012130310589F50196909316018093D3
:10073000150120911101309112018217930721F4C4
:10074000109216011092150181E0C81AD10880910B
:100750001501909116012091130130911401B801F7
:100760002530310509F0B4010E9419040E940C01E2
:1007700086CF892B09F469CF6CCFCC24C394D12CBC
:1007800010920C0110920B017ACF892B41F48091C9
:10079000110190911201909316018093150180919F
:1007A0001501909116010197909316018093150100
:1007B000CBCF6114710409F42DCF0E9400002ACF21
:1007C000CF93DF93CBE0D1E01B861A861982188283
:1007D0001E8A1F8A188E198E84E290E09F838E8372
:1007E0008DE090E09D878C878CE090E09F878E87DE
:1007F0008BE090E0998B888B8AE090E09B8B8A8BD2
:1008000061E08DE00E941C0261E08E850E941C0266
:1008100061E088890E941C0261E08A890E941C02B2
:100820001D8A1C8A84E090E099878887DF91CF91A8
:10083000089597FB072E16F4009407D077FD09D092
:100840000E94520407FC05D03EF4909581959F4F7D
:100850000895709561957F4F0895052E97FB1EF4BE
:1008600000940E94440457FD07D00E94660407FCD0
:1008700003D04EF40C944404509540953095219546
:100880003F4F4F4F5F4F08959095809570956195BC
:100890007F4F8F4F9F4F0895EE0FFF1F0590F491EC
:1008A000E02D0994AA1BBB1B51E107C0AA1FBB1F67
:1008B000A617B70710F0A61BB70B881F991F5A95EC
:1008C000A9F780959095BC01CD010895A1E21A2E5B
:1008D000AA1BBB1BFD010DC0AA1FBB1FEE1FFF1FE4
:1008E000A217B307E407F50720F0A21BB30BE40B34
:1008F000F50B661F771F881F991F1A9469F760957B
:100900007095809590959B01AC01BD01CF01089534
:04091000F894FFCF89
:020914000100E0
:00000001FF
